{
  "contractName": "Clearance",
  "abi": [
    {
      "inputs": [
        {
          "internalType": "uint256",
          "name": "",
          "type": "uint256"
        }
      ],
      "name": "StagesList",
      "outputs": [
        {
          "internalType": "uint256",
          "name": "id",
          "type": "uint256"
        },
        {
          "internalType": "string",
          "name": "name",
          "type": "string"
        },
        {
          "internalType": "uint256",
          "name": "prevId",
          "type": "uint256"
        }
      ],
      "stateMutability": "view",
      "type": "function",
      "constant": true
    },
    {
      "inputs": [
        {
          "internalType": "uint256",
          "name": "",
          "type": "uint256"
        }
      ],
      "name": "UsersList",
      "outputs": [
        {
          "internalType": "uint256",
          "name": "id",
          "type": "uint256"
        },
        {
          "internalType": "uint256",
          "name": "stageId",
          "type": "uint256"
        },
        {
          "internalType": "bool",
          "name": "completedAction",
          "type": "bool"
        }
      ],
      "stateMutability": "view",
      "type": "function",
      "constant": true
    },
    {
      "inputs": [
        {
          "internalType": "uint256",
          "name": "_uid",
          "type": "uint256"
        },
        {
          "internalType": "uint256",
          "name": "_stageId",
          "type": "uint256"
        }
      ],
      "name": "addUser",
      "outputs": [],
      "stateMutability": "nonpayable",
      "type": "function"
    },
    {
      "inputs": [
        {
          "internalType": "uint256",
          "name": "_sid",
          "type": "uint256"
        },
        {
          "internalType": "string",
          "name": "_name",
          "type": "string"
        },
        {
          "internalType": "uint256",
          "name": "_prevId",
          "type": "uint256"
        }
      ],
      "name": "addStage",
      "outputs": [],
      "stateMutability": "nonpayable",
      "type": "function"
    },
    {
      "inputs": [],
      "name": "getStages",
      "outputs": [
        {
          "components": [
            {
              "internalType": "uint256",
              "name": "id",
              "type": "uint256"
            },
            {
              "internalType": "string",
              "name": "name",
              "type": "string"
            },
            {
              "internalType": "uint256",
              "name": "prevId",
              "type": "uint256"
            }
          ],
          "internalType": "struct Clearance.Stage[]",
          "name": "",
          "type": "tuple[]"
        }
      ],
      "stateMutability": "view",
      "type": "function",
      "constant": true
    },
    {
      "inputs": [],
      "name": "getUsers",
      "outputs": [
        {
          "components": [
            {
              "internalType": "uint256",
              "name": "id",
              "type": "uint256"
            },
            {
              "internalType": "uint256",
              "name": "stageId",
              "type": "uint256"
            },
            {
              "internalType": "bool",
              "name": "completedAction",
              "type": "bool"
            }
          ],
          "internalType": "struct Clearance.User[]",
          "name": "",
          "type": "tuple[]"
        }
      ],
      "stateMutability": "view",
      "type": "function",
      "constant": true
    },
    {
      "inputs": [
        {
          "internalType": "uint256",
          "name": "_uid",
          "type": "uint256"
        }
      ],
      "name": "proceedUser",
      "outputs": [],
      "stateMutability": "nonpayable",
      "type": "function"
    },
    {
      "inputs": [
        {
          "internalType": "uint256",
          "name": "_uid",
          "type": "uint256"
        }
      ],
      "name": "revertUser",
      "outputs": [],
      "stateMutability": "nonpayable",
      "type": "function"
    },
    {
      "inputs": [
        {
          "internalType": "uint256",
          "name": "_uid",
          "type": "uint256"
        }
      ],
      "name": "updateAction",
      "outputs": [],
      "stateMutability": "nonpayable",
      "type": "function"
    },
    {
      "inputs": [
        {
          "internalType": "uint256",
          "name": "_sid",
          "type": "uint256"
        }
      ],
      "name": "deleteStage",
      "outputs": [],
      "stateMutability": "nonpayable",
      "type": "function"
    },
    {
      "inputs": [
        {
          "internalType": "uint256",
          "name": "_uid",
          "type": "uint256"
        }
      ],
      "name": "deleteUser",
      "outputs": [],
      "stateMutability": "nonpayable",
      "type": "function"
    }
  ],
  "bytecode": "0x608060405234801561001057600080fd5b50611ea1806100206000396000f3fe608060405234801561001057600080fd5b50600436106100a85760003560e01c80638950b8b5116100715780638950b8b51461013d5780639460996f14610159578063a0a48d8814610175578063a78fa61f14610191578063a84c63af146101c3578063e00c04ac146101f5576100a8565b8062ce8e3e146100ad57806338f14845146100cb5780634ecc0c2f146100e757806366e130691461010357806379655bd01461011f575b600080fd5b6100b5610211565b6040516100c29190611244565b60405180910390f35b6100e560048036038101906100e091906112a6565b61029f565b005b61010160048036038101906100fc91906112a6565b610486565b005b61011d60048036038101906101189190611419565b610654565b005b610127610712565b6040516101349190611619565b60405180910390f35b610157600480360381019061015291906112a6565b610817565b005b610173600480360381019061016e91906112a6565b610935565b005b61018f600480360381019061018a91906112a6565b610c86565b005b6101ab60048036038101906101a691906112a6565b610ee5565b6040516101ba93929190611694565b60405180910390f35b6101dd60048036038101906101d891906112a6565b610fa7565b6040516101ec939291906116e1565b60405180910390f35b61020f600480360381019061020a9190611718565b610fee565b005b60606001805480602002602001604051908101604052809291908181526020016000905b82821015610296578382906000526020600020906003020160405180606001604052908160008201548152602001600182015481526020016002820160009054906101000a900460ff16151515158152505081526020019060010190610235565b50505050905090565b6000805b6001805490508110156102f85782600182815481106102c5576102c4611758565b5b906000526020600020906003020160000154036102e4578091506102f8565b6001816102f191906117b6565b90506102a3565b50600081101561033d576040517f08c379a000000000000000000000000000000000000000000000000000000000815260040161033490611836565b60405180910390fd5b6001805490508110610384576040517f08c379a000000000000000000000000000000000000000000000000000000000815260040161037b906118a2565b60405180910390fd5b6001808054905061039591906118c2565b81146104335760018080805490506103ad91906118c2565b815481106103be576103bd611758565b5b9060005260206000209060030201600182815481106103e0576103df611758565b5b906000526020600020906003020160008201548160000155600182015481600101556002820160009054906101000a900460ff168160020160006101000a81548160ff0219169083151502179055509050505b6001805480610445576104446118f6565b5b600190038181906000526020600020906003020160008082016000905560018201600090556002820160006101000a81549060ff0219169055505090555050565b6000805b6000805490508110156104df5782600082815481106104ac576104ab611758565b5b906000526020600020906003020160000154036104cb578091506104df565b6001816104d891906117b6565b905061048a565b506000811015610524576040517f08c379a000000000000000000000000000000000000000000000000000000000815260040161051b90611971565b60405180910390fd5b600080549050811061056b576040517f08c379a0000000000000000000000000000000000000000000000000000000008152600401610562906119dd565b60405180910390fd5b600160008054905061057d91906118c2565b8114610605576000600160008054905061059791906118c2565b815481106105a8576105a7611758565b5b9060005260206000209060030201600082815481106105ca576105c9611758565b5b906000526020600020906003020160008201548160000155600182018160010190816105f69190611c1f565b50600282015481600201559050505b6000805480610617576106166118f6565b5b600190038181906000526020600020906003020160008082016000905560018201600061064491906110c2565b6002820160009055505090555050565b6000604051806060016040528085815260200184815260200183815250905060008190806001815401808255809150506001900390600052602060002090600302016000909190919091506000820151816000015560208201518160010190816106be9190611d07565b5060408201518160020155505080600360008681526020019081526020016000206000820151816000015560208201518160010190816106fe9190611d07565b506040820151816002015590505050505050565b60606000805480602002602001604051908101604052809291908181526020016000905b8282101561080e57838290600052602060002090600302016040518060600160405290816000820154815260200160018201805461077390611a2c565b80601f016020809104026020016040519081016040528092919081815260200182805461079f90611a2c565b80156107ec5780601f106107c1576101008083540402835291602001916107ec565b820191906000526020600020905b8154815290600101906020018083116107cf57829003601f168201915b5050505050815260200160028201548152505081526020019060010190610736565b50505050905090565b6000600260008381526020019081526020016000206000015411610870576040517f08c379a000000000000000000000000000000000000000000000000000000000815260040161086790611836565b60405180910390fd5b60016002600083815260200190815260200160002060020160006101000a81548160ff02191690831515021790555060005b6001805490508110156109315781600182815481106108c4576108c3611758565b5b9060005260206000209060030201600001540361091d5760018082815481106108f0576108ef611758565b5b906000526020600020906003020160020160006101000a81548160ff021916908315150217905550610931565b60018161092a91906117b6565b90506108a2565b5050565b600060026000838152602001908152602001600020600001541161098e576040517f08c379a000000000000000000000000000000000000000000000000000000000815260040161098590611836565b60405180910390fd5b600115156002600083815260200190815260200160002060020160009054906101000a900460ff161515146109f8576040517f08c379a00000000000000000000000000000000000000000000000000000000081526004016109ef90611e4b565b60405180910390fd5b6000600360006002600085815260200190815260200160002060010154815260200190815260200160002060405180606001604052908160008201548152602001600182018054610a4890611a2c565b80601f0160208091040260200160405190810160405280929190818152602001828054610a7490611a2c565b8015610ac15780601f10610a9657610100808354040283529160200191610ac1565b820191906000526020600020905b815481529060010190602001808311610aa457829003601f168201915b50505050508152602001600282015481525050905060005b600080549050811015610c8157816000015160008281548110610aff57610afe611758565b5b90600052602060002090600302016002015403610c6d5760008181548110610b2a57610b29611758565b5b906000526020600020906003020160000154600260008581526020019081526020016000206001018190555060006002600085815260200190815260200160002060020160006101000a81548160ff02191690831515021790555060005b600180549050811015610c67578360018281548110610baa57610ba9611758565b5b90600052602060002090600302016000015403610c535760008281548110610bd557610bd4611758565b5b90600052602060002090600302016000015460018281548110610bfb57610bfa611758565b5b906000526020600020906003020160010181905550600060018281548110610c2657610c25611758565b5b906000526020600020906003020160020160006101000a81548160ff021916908315150217905550610c67565b600181610c6091906117b6565b9050610b88565b50610c81565b600181610c7a91906117b6565b9050610ad9565b505050565b6000600260008381526020019081526020016000206000015411610cdf576040517f08c379a0000000000000000000000000000000000000000000000000000000008152600401610cd690611836565b60405180910390fd5b6000600360006002600085815260200190815260200160002060010154815260200190815260200160002060405180606001604052908160008201548152602001600182018054610d2f90611a2c565b80601f0160208091040260200160405190810160405280929190818152602001828054610d5b90611a2c565b8015610da85780601f10610d7d57610100808354040283529160200191610da8565b820191906000526020600020905b815481529060010190602001808311610d8b57829003601f168201915b505050505081526020016002820154815250509050600181604001511015610dd05750610ee2565b8060400151600260008481526020019081526020016000206001018190555060006002600084815260200190815260200160002060020160006101000a81548160ff02191690831515021790555060005b600180549050811015610edf578260018281548110610e4357610e42611758565b5b90600052602060002090600302016000015403610ecb57816040015160018281548110610e7357610e72611758565b5b906000526020600020906003020160010181905550600060018281548110610e9e57610e9d611758565b5b906000526020600020906003020160020160006101000a81548160ff021916908315150217905550610edf565b600181610ed891906117b6565b9050610e21565b50505b50565b60008181548110610ef557600080fd5b9060005260206000209060030201600091509050806000015490806001018054610f1e90611a2c565b80601f0160208091040260200160405190810160405280929190818152602001828054610f4a90611a2c565b8015610f975780601f10610f6c57610100808354040283529160200191610f97565b820191906000526020600020905b815481529060010190602001808311610f7a57829003601f168201915b5050505050908060020154905083565b60018181548110610fb757600080fd5b90600052602060002090600302016000915090508060000154908060010154908060020160009054906101000a900460ff16905083565b600060405180606001604052808481526020018381526020016000151581525090506001819080600181540180825580915050600190039060005260206000209060030201600090919091909150600082015181600001556020820151816001015560408201518160020160006101000a81548160ff02191690831515021790555050508060026000858152602001908152602001600020600082015181600001556020820151816001015560408201518160020160006101000a81548160ff021916908315150217905550905050505050565b5080546110ce90611a2c565b6000825580601f106110e057506110ff565b601f0160209004906000526020600020908101906110fe9190611102565b5b50565b5b8082111561111b576000816000905550600101611103565b5090565b600081519050919050565b600082825260208201905092915050565b6000819050602082019050919050565b6000819050919050565b61115e8161114b565b82525050565b60008115159050919050565b61117981611164565b82525050565b6060820160008201516111956000850182611155565b5060208201516111a86020850182611155565b5060408201516111bb6040850182611170565b50505050565b60006111cd838361117f565b60608301905092915050565b6000602082019050919050565b60006111f18261111f565b6111fb818561112a565b93506112068361113b565b8060005b8381101561123757815161121e88826111c1565b9750611229836111d9565b92505060018101905061120a565b5085935050505092915050565b6000602082019050818103600083015261125e81846111e6565b905092915050565b6000604051905090565b600080fd5b600080fd5b6112838161114b565b811461128e57600080fd5b50565b6000813590506112a08161127a565b92915050565b6000602082840312156112bc576112bb611270565b5b60006112ca84828501611291565b91505092915050565b600080fd5b600080fd5b6000601f19601f8301169050919050565b7f4e487b7100000000000000000000000000000000000000000000000000000000600052604160045260246000fd5b611326826112dd565b810181811067ffffffffffffffff82111715611345576113446112ee565b5b80604052505050565b6000611358611266565b9050611364828261131d565b919050565b600067ffffffffffffffff821115611384576113836112ee565b5b61138d826112dd565b9050602081019050919050565b82818337600083830152505050565b60006113bc6113b784611369565b61134e565b9050828152602081018484840111156113d8576113d76112d8565b5b6113e384828561139a565b509392505050565b600082601f830112611400576113ff6112d3565b5b81356114108482602086016113a9565b91505092915050565b60008060006060848603121561143257611431611270565b5b600061144086828701611291565b935050602084013567ffffffffffffffff81111561146157611460611275565b5b61146d868287016113eb565b925050604061147e86828701611291565b9150509250925092565b600081519050919050565b600082825260208201905092915050565b6000819050602082019050919050565b600081519050919050565b600082825260208201905092915050565b60005b838110156114ee5780820151818401526020810190506114d3565b60008484015250505050565b6000611505826114b4565b61150f81856114bf565b935061151f8185602086016114d0565b611528816112dd565b840191505092915050565b600060608301600083015161154b6000860182611155565b506020830151848203602086015261156382826114fa565b91505060408301516115786040860182611155565b508091505092915050565b600061158f8383611533565b905092915050565b6000602082019050919050565b60006115af82611488565b6115b98185611493565b9350836020820285016115cb856114a4565b8060005b8581101561160757848403895281516115e88582611583565b94506115f383611597565b925060208a019950506001810190506115cf565b50829750879550505050505092915050565b6000602082019050818103600083015261163381846115a4565b905092915050565b6116448161114b565b82525050565b600082825260208201905092915050565b6000611666826114b4565b611670818561164a565b93506116808185602086016114d0565b611689816112dd565b840191505092915050565b60006060820190506116a9600083018661163b565b81810360208301526116bb818561165b565b90506116ca604083018461163b565b949350505050565b6116db81611164565b82525050565b60006060820190506116f6600083018661163b565b611703602083018561163b565b61171060408301846116d2565b949350505050565b6000806040838503121561172f5761172e611270565b5b600061173d85828601611291565b925050602061174e85828601611291565b9150509250929050565b7f4e487b7100000000000000000000000000000000000000000000000000000000600052603260045260246000fd5b7f4e487b7100000000000000000000000000000000000000000000000000000000600052601160045260246000fd5b60006117c18261114b565b91506117cc8361114b565b92508282019050808211156117e4576117e3611787565b5b92915050565b7f496e76616c696420557365720000000000000000000000000000000000000000600082015250565b6000611820600c8361164a565b915061182b826117ea565b602082019050919050565b6000602082019050818103600083015261184f81611813565b9050919050565b7f55736572204f7574206f6620626f6e6400000000000000000000000000000000600082015250565b600061188c60108361164a565b915061189782611856565b602082019050919050565b600060208201905081810360008301526118bb8161187f565b9050919050565b60006118cd8261114b565b91506118d88361114b565b92508282039050818111156118f0576118ef611787565b5b92915050565b7f4e487b7100000000000000000000000000000000000000000000000000000000600052603160045260246000fd5b7f496e76616c696420537461676500000000000000000000000000000000000000600082015250565b600061195b600d8361164a565b915061196682611925565b602082019050919050565b6000602082019050818103600083015261198a8161194e565b9050919050565b7f5374616765204f7574206f6620626f6e64000000000000000000000000000000600082015250565b60006119c760118361164a565b91506119d282611991565b602082019050919050565b600060208201905081810360008301526119f6816119ba565b9050919050565b7f4e487b7100000000000000000000000000000000000000000000000000000000600052602260045260246000fd5b60006002820490506001821680611a4457607f821691505b602082108103611a5757611a566119fd565b5b50919050565b600081549050611a6c81611a2c565b9050919050565b60008190508160005260206000209050919050565b60006020601f8301049050919050565b600082821b905092915050565b600060088302611ad57fffffffffffffffffffffffffffffffffffffffffffffffffffffffffffffffff82611a98565b611adf8683611a98565b95508019841693508086168417925050509392505050565b6000819050919050565b6000611b1c611b17611b128461114b565b611af7565b61114b565b9050919050565b6000819050919050565b611b3683611b01565b611b4a611b4282611b23565b848454611aa5565b825550505050565b600090565b611b5f611b52565b611b6a818484611b2d565b505050565b5b81811015611b8e57611b83600082611b57565b600181019050611b70565b5050565b601f821115611bd357611ba481611a73565b611bad84611a88565b81016020851015611bbc578190505b611bd0611bc885611a88565b830182611b6f565b50505b505050565b600082821c905092915050565b6000611bf660001984600802611bd8565b1980831691505092915050565b6000611c0f8383611be5565b9150826002028217905092915050565b818103611c2d575050611d05565b611c3682611a5d565b67ffffffffffffffff811115611c4f57611c4e6112ee565b5b611c598254611a2c565b611c64828285611b92565b6000601f831160018114611c935760008415611c81578287015490505b611c8b8582611c03565b865550611cfe565b601f198416611ca187611a73565b9650611cac86611a73565b60005b82811015611cd457848901548255600182019150600185019450602081019050611caf565b86831015611cf15784890154611ced601f891682611be5565b8355505b6001600288020188555050505b5050505050505b565b611d10826114b4565b67ffffffffffffffff811115611d2957611d286112ee565b5b611d338254611a2c565b611d3e828285611b92565b600060209050601f831160018114611d715760008415611d5f578287015190505b611d698582611c03565b865550611dd1565b601f198416611d7f86611a73565b60005b82811015611da757848901518255600182019150602085019450602081019050611d82565b86831015611dc45784890151611dc0601f891682611be5565b8355505b6001600288020188555050505b505050505050565b7f55736572206861736e27742075706c6f6164656420646f63756d656e742f666f60008201527f726d000000000000000000000000000000000000000000000000000000000000602082015250565b6000611e3560228361164a565b9150611e4082611dd9565b604082019050919050565b60006020820190508181036000830152611e6481611e28565b905091905056fea2646970667358221220c6721dfe688d7b777325f29552a71ddc407a3712ff1499b95c68949e9f0ea6d864736f6c63430008130033",
  "immutableReferences": {},
  "source": "// SPDX-License-Identifier: GPL-3.0\r\n\r\npragma solidity >=0.8.19 <0.9.0;\r\n\r\n\r\ncontract Clearance{\r\n    \r\n    struct Stage{\r\n        uint id;\r\n        string name;\r\n        uint prevId;\r\n    }\r\n\r\n    struct User{\r\n        uint id;\r\n        uint stageId;\r\n        bool completedAction;\r\n    }\r\n\r\n    Stage [] public StagesList;\r\n    User [] public UsersList;\r\n    mapping(uint=>User) Users;\r\n    mapping(uint=>Stage) Stages;\r\n\r\n\r\n    function addUser(uint _uid,uint _stageId) public {\r\n        User memory u = User(_uid,_stageId,false);\r\n        UsersList.push(u);\r\n        Users[_uid] = u;\r\n    }\r\n\r\n    function addStage(uint _sid,string memory _name, uint _prevId) public{\r\n        Stage memory s = Stage(_sid,_name,_prevId);\r\n        StagesList.push(s);\r\n        Stages[_sid] = s;\r\n    }\r\n\r\n    function getStages() public view returns (Stage [] memory){\r\n        return StagesList;\r\n    }\r\n\r\n    function getUsers() public view returns (User [] memory){\r\n        return UsersList;\r\n    }\r\n\r\n    function proceedUser(uint _uid) public {\r\n        require(Users[_uid].id > 0,\"Invalid User\");\r\n        require(Users[_uid].completedAction == true,\"User hasn't uploaded document/form\");\r\n        Stage memory s = Stages[Users[_uid].stageId];\r\n        for (uint i = 0; i < StagesList.length; i +=1){\r\n            if(StagesList[i].prevId == s.id){\r\n                Users[_uid].stageId = StagesList[i].id;\r\n                Users[_uid].completedAction = false;\r\n\r\n                for (uint j = 0; j < UsersList.length; j +=1){\r\n                    if(UsersList[j].id == _uid){\r\n                        UsersList[j].stageId = StagesList[i].id;\r\n                         UsersList[j].completedAction = false;\r\n                        break;\r\n                    }\r\n                }\r\n                break;\r\n            }\r\n        }\r\n    }\r\n\r\n    function revertUser(uint _uid) public{\r\n        require(Users[_uid].id > 0,\"Invalid User\");\r\n        Stage memory s = Stages[Users[_uid].stageId];\r\n        if(s.prevId < 1){\r\n            return ;\r\n        }\r\n        Users[_uid].stageId = s.prevId;\r\n        Users[_uid].completedAction = false;\r\n        \r\n         for (uint j = 0; j < UsersList.length; j +=1){\r\n            if(UsersList[j].id == _uid){\r\n                UsersList[j].stageId = s.prevId;\r\n                    UsersList[j].completedAction = false;\r\n                break;\r\n            }\r\n        }\r\n    }\r\n\r\n    function updateAction(uint _uid) public{\r\n        require(Users[_uid].id > 0,\"Invalid User\");\r\n        Users[_uid].completedAction = true;\r\n\r\n        for (uint j = 0; j < UsersList.length; j +=1){\r\n            if(UsersList[j].id == _uid){\r\n                    UsersList[j].completedAction = true;\r\n                break;\r\n            }\r\n        }\r\n    }\r\n\r\n\r\n    function deleteStage(uint _sid) public{\r\n        uint index = 0;\r\n        for (uint i = 0; i < StagesList.length; i +=1){\r\n            if(StagesList[i].id == _sid){\r\n                index = i;\r\n                break;\r\n            }\r\n        }\r\n        require(index >= 0,\"Invalid Stage\");\r\n        require(index < StagesList.length,\"Stage Out of bond\");\r\n        if(index != StagesList.length -1){\r\n            StagesList[index] = StagesList[StagesList.length -1];\r\n        }\r\n        StagesList.pop();\r\n    }\r\n\r\n     function deleteUser(uint _uid) public{\r\n         uint index = 0;\r\n        for (uint i = 0; i < UsersList.length; i +=1){\r\n            if(UsersList[i].id == _uid){\r\n                index = i;\r\n                break;\r\n            }\r\n        }\r\n        require(index >= 0,\"Invalid User\");\r\n        require(index < UsersList.length,\"User Out of bond\");\r\n        if(index != UsersList.length -1){\r\n            UsersList[index] = UsersList[UsersList.length -1];\r\n        }\r\n        UsersList.pop();\r\n    }\r\n\r\n}\r\n",
  "sourcePath": "C:\\Users\\SOFT\\Desktop\\clearance\\smart-contracts\\contracts\\Clearance.sol",
  "compiler": {
    "name": "solc",
    "version": "0.8.19+commit.7dd6d404.Emscripten.clang"
  },
  "schemaVersion": "3.4.15",
  "updatedAt": "2023-08-15T01:53:20.743Z",
  "networkType": "ethereum",
  "devdoc": {
    "kind": "dev",
    "methods": {},
    "version": 1
  },
  "userdoc": {
    "kind": "user",
    "methods": {},
    "version": 1
  }
}